{
  "_format": "hh-sol-artifact-1",
  "contractName": "SingleVerifierWithDeserialize",
  "sourceName": "contracts/PlonkSingleCore.sol",
  "abi": [
    {
      "inputs": [
        {
          "internalType": "uint256[]",
          "name": "public_inputs",
          "type": "uint256[]"
        },
        {
          "internalType": "uint256[]",
          "name": "serialized_proof",
          "type": "uint256[]"
        }
      ],
      "name": "deserialize_proof",
      "outputs": [
        {
          "components": [
            {
              "internalType": "uint256[]",
              "name": "input_values",
              "type": "uint256[]"
            },
            {
              "components": [
                {
                  "internalType": "uint256",
                  "name": "X",
                  "type": "uint256"
                },
                {
                  "internalType": "uint256",
                  "name": "Y",
                  "type": "uint256"
                }
              ],
              "internalType": "struct PairingsBn254.G1Point[4]",
              "name": "wire_commitments",
              "type": "tuple[4]"
            },
            {
              "components": [
                {
                  "internalType": "uint256",
                  "name": "X",
                  "type": "uint256"
                },
                {
                  "internalType": "uint256",
                  "name": "Y",
                  "type": "uint256"
                }
              ],
              "internalType": "struct PairingsBn254.G1Point",
              "name": "grand_product_commitment",
              "type": "tuple"
            },
            {
              "components": [
                {
                  "internalType": "uint256",
                  "name": "X",
                  "type": "uint256"
                },
                {
                  "internalType": "uint256",
                  "name": "Y",
                  "type": "uint256"
                }
              ],
              "internalType": "struct PairingsBn254.G1Point[4]",
              "name": "quotient_poly_commitments",
              "type": "tuple[4]"
            },
            {
              "components": [
                {
                  "internalType": "uint256",
                  "name": "value",
                  "type": "uint256"
                }
              ],
              "internalType": "struct PairingsBn254.Fr[4]",
              "name": "wire_values_at_z",
              "type": "tuple[4]"
            },
            {
              "components": [
                {
                  "internalType": "uint256",
                  "name": "value",
                  "type": "uint256"
                }
              ],
              "internalType": "struct PairingsBn254.Fr",
              "name": "grand_product_at_z_omega",
              "type": "tuple"
            },
            {
              "components": [
                {
                  "internalType": "uint256",
                  "name": "value",
                  "type": "uint256"
                }
              ],
              "internalType": "struct PairingsBn254.Fr",
              "name": "quotient_polynomial_at_z",
              "type": "tuple"
            },
            {
              "components": [
                {
                  "internalType": "uint256",
                  "name": "value",
                  "type": "uint256"
                }
              ],
              "internalType": "struct PairingsBn254.Fr",
              "name": "linearization_polynomial_at_z",
              "type": "tuple"
            },
            {
              "components": [
                {
                  "internalType": "uint256",
                  "name": "value",
                  "type": "uint256"
                }
              ],
              "internalType": "struct PairingsBn254.Fr[3]",
              "name": "permutation_polynomials_at_z",
              "type": "tuple[3]"
            },
            {
              "components": [
                {
                  "internalType": "uint256",
                  "name": "X",
                  "type": "uint256"
                },
                {
                  "internalType": "uint256",
                  "name": "Y",
                  "type": "uint256"
                }
              ],
              "internalType": "struct PairingsBn254.G1Point",
              "name": "opening_at_z_proof",
              "type": "tuple"
            },
            {
              "components": [
                {
                  "internalType": "uint256",
                  "name": "X",
                  "type": "uint256"
                },
                {
                  "internalType": "uint256",
                  "name": "Y",
                  "type": "uint256"
                }
              ],
              "internalType": "struct PairingsBn254.G1Point",
              "name": "opening_at_z_omega_proof",
              "type": "tuple"
            }
          ],
          "internalType": "struct Plonk4SingleVerifierWithAccessToDNext.Proof",
          "name": "proof",
          "type": "tuple"
        }
      ],
      "stateMutability": "pure",
      "type": "function"
    },
    {
      "inputs": [
        {
          "internalType": "uint256[]",
          "name": "vkdata",
          "type": "uint256[]"
        },
        {
          "internalType": "uint256[]",
          "name": "serialized_proof",
          "type": "uint256[]"
        }
      ],
      "name": "test_interface",
      "outputs": [
        {
          "internalType": "bool",
          "name": "",
          "type": "bool"
        }
      ],
      "stateMutability": "view",
      "type": "function"
    }
  ],
  "bytecode": "0x608060405234801561001057600080fd5b5061235f806100206000396000f3fe608060405234801561001057600080fd5b50600436106100365760003560e01c80630eaf51121461003b578063d1ce7f2c14610064575b600080fd5b61004e610049366004612013565b610084565b60405161005b91906121f2565b60405180910390f35b610077610072366004612013565b610309565b60405161005b9190612194565b61008c611c7e565b602082511461009a57600080fd5b825167ffffffffffffffff811180156100b257600080fd5b506040519080825280602002602001820160405280156100dc578160200160208202803683370190505b50815260005b8351811015610122578381815181106100f757fe5b60200260200101518260000151828151811061010f57fe5b60209081029190910101526001016100e2565b506000805b60048110156101875761016384838151811061013f57fe5b602002602001015185846001018151811061015657fe5b60200260200101516105bc565b8360200151826004811061017357fe5b602002015260029190910190600101610127565b506101ae83828151811061019757fe5b602002602001015184836001018151811061015657fe5b604083015260020160005b60048110156101f5576101d184838151811061013f57fe5b836060015182600481106101e157fe5b6020020152600291909101906001016101b9565b5060005b600481101561023f5761021e84838151811061021157fe5b602002602001015161069e565b8360800151826004811061022e57fe5b6020020152600191820191016101f9565b5061024f83828151811061021157fe5b8260a0018190525060018101905061026c83828151811061021157fe5b8260c0018190525060018101905061028983828151811061021157fe5b60e083015260010160005b60038110156102ce576102ac84838151811061021157fe5b83610100015182600381106102bd57fe5b602002015260019182019101610294565b506102de83828151811061019757fe5b8261012001819052506002810190506102fc83828151811061019757fe5b6101408301525092915050565b6000610313611d13565b8360008151811061032057fe5b60200260200101518160000181815250508360018151811061033e57fe5b602002602001015181602001818152505061035f8460028151811061021157fe5b6040820152600360005b60068110156103bc5761039886838151811061038157fe5b602002602001015187846001018151811061015657fe5b836060015182600681106103a857fe5b602002015260029190910190600101610369565b5060005b60048110156103fc576103d886838151811061038157fe5b836080015182600481106103e857fe5b6020020152600291909101906001016103c0565b5060005b60038110156104395761041886838151811061021157fe5b8360a00151826003811061042857fe5b602002015260019182019101610400565b50610442611d68565b61044a611d68565b86838151811061045657fe5b60200260200101518260016002811061046b57fe5b602002015286516001939093019287908490811061048557fe5b60200260200101518260006002811061049a57fe5b60200201528651600193909301928790849081106104b457fe5b6020026020010151816001600281106104c957fe5b60200201528651600193909301928790849081106104e357fe5b6020026020010151816000600281106104f857fe5b60200201526001929092019161050e82826106d2565b60c0850152602084015160609067ffffffffffffffff8111801561053157600080fd5b5060405190808252806020026020018201604052801561055b578160200160208202803683370190505b50905060005b856020015181101561058e57600082828151811061057b57fe5b6020908102919091010152600101610561565b50610597611c7e565b6105a18289610084565b90506105ad81876106f0565b96505050505050505b92915050565b6105c4611d86565b821580156105d0575081155b156105f15760405180604001604052808481526020018381525090506105b6565b6000805160206122ea833981519152831061060b57600080fd5b6000805160206122ea833981519152821061062557600080fd5b60006000805160206122ea833981519152838409905060006000805160206122ea83398151915285860990506000805160206122ea83398151915285820990506000805160206122ea83398151915260038208905080821461068657600080fd5b50506040805180820190915292835250602082015290565b6106a6611da0565b60008051602061230a83398151915282106106c057600080fd5b50604080516020810190915290815290565b6106da611db3565b5060408051808201909152918252602082015290565b60006106fa611dd3565b600061070782868661075c565b905080610719576000925050506105b6565b6107486040518060400160405280600e81526020016d1a5b9a5d1a585b081c185cdcd95960921b815250610a26565b610753828686610a6c565b95945050505050565b60208101518251516000911461077157600080fd5b60018260200151101561078357600080fd5b61078b611e34565b610793610e03565b905060005b83602001518110156107d6576107ce856000015182815181106107b757fe5b602002602001015183610e1f90919063ffffffff16565b600101610798565b5060005b600481101561080a57610802856020015182600481106107f657fe5b60200201518390610e92565b6001016107da565b5061081481610eb2565b602086015261082281610eb2565b604080870191909152840151610839908290610e92565b61084281610eb2565b855260005b600481101561086b57610863856060015182600481106107f657fe5b600101610847565b5061087581610eb2565b60a0860152602083015167ffffffffffffffff8111801561089557600080fd5b506040519080825280602002602001820160405280156108cf57816020015b6108bc611da0565b8152602001906001900390816108b45790505b5060c086015260005b836020015181101561092d576109256108ff82866000015187604001518a60a00151610f23565b8760c00151838151811061090f57fe5b6020026020010151610fda90919063ffffffff16565b6001016108d8565b50600061093b868686610fdf565b90508061094d57600092505050610a1f565b60005b6004811015610980576109788660800151826004811061096c57fe5b602002015184906111dd565b600101610950565b5060005b60038110156109a9576109a1866101000151826003811061096c57fe5b600101610984565b5060a08501516109ba9083906111dd565b60c08501516109ca9083906111dd565b60e08501516109da9083906111dd565b6109e382610eb2565b60608701526101208501516109f9908390610e92565b610140850151610a0a908390610e92565b610a1382610eb2565b60808701525060019150505b9392505050565b610a6981604051602401610a3a919061219f565b60408051601f198184030181529190526020810180516001600160e01b031663104c13eb60e21b1790526111eb565b50565b6000610a76611d86565b610a8185858561120c565b9050610a8b611da0565b835160a0870151610a9b91611522565b9050610aa5611d86565b610aad6115ae565b9050610ab7611da0565b610ac1600161069e565b9050610acb611d86565b6060880151610ae19060005b602002015161160d565b9050610aeb611da0565b610af5600161069e565b905060015b6004811015610b4057610b0d8287611629565b610b2c828b606001518360048110610b2157fe5b602002015190611643565b9450610b388386611656565b600101610afa565b5060608a0151610b51908490611629565b610b5b8287611656565b60005b6004811015610b9f5760608b0151610b77908590611629565b610b8b848b602001518360048110610b2157fe5b9450610b978386611656565b600101610b5e565b5060005b6003811015610be45760608b0151610bbc908590611629565b610bd0848a608001518360048110610b2157fe5b9450610bdc8386611656565b600101610ba3565b50610bef600161069e565b9250610bf9611da0565b610c068a60c00151611661565b9050610c1f8b606001518561162990919063ffffffff16565b60e08a0151610c2f908390610fda565b610c398285611629565b610c438183611670565b60005b6004811015610c9a5760608c0151610c5f908690611629565b610c7e8b608001518260048110610c7257fe5b60200201518490610fda565b610c888386611629565b610c928284611670565b600101610c46565b5060005b6003811015610ce75760608c0151610cb7908690611629565b610ccb8b61010001518260038110610c7257fe5b610cd58386611629565b610cdf8284611670565b600101610c9e565b5060a08a0151610cf8908390610fda565b60808b0151610d08908390611629565b610d128183611670565b610d2e610d2782610d216115ae565b90611643565b849061168a565b610d36611d86565b5060a08b01516101208b01518491610d5891610d5191611643565b8290611656565b60a08c0151610d68908490610fda565b60408a0151610d78908490611629565b60808c0151610d88908490611629565b6101408b0151610d9c90610d519085611643565b610da4611d86565b60808d01516101408d0151610db891611643565b9050610dd28c61012001518261165690919063ffffffff16565b610ddb81611695565b610df282610de76116c8565b838e60c00151611788565b9d9c50505050505050505050505050565b610e0b611e34565b600080825260208201819052604082015290565b8151602080840151604051610e3d9260009285929091879101612139565b60408051601f1981840301815291815281516020928301208552848201519051610e709260019285929091879101612139565b60408051601f1981840301815291905280516020918201209301929092525050565b610ea0828260000151610e1f565b610eae828260200151610e1f565b5050565b610eba611da0565b60006002836000015184602001518560400151604051602001610ee09493929190612163565b60408051808303601f190181529181528151602092830120948101805160010163ffffffff169052805191820190526001600160fd1b0390931683525090919050565b610f2b611da0565b838510610f3757600080fd5b610f3f611da0565b610f49600161069e565b9050610f53611da0565b610f5d8588611522565b9050610f698487611522565b9250610f75838361186e565b8251610f8057600080fd5b610f8a8382611629565b610f92611da0565b610f9b85611661565b9050610fa7818361186e565b610fba610fb38861069e565b8290611629565b610fc38161188c565b9050610fcf8482611629565b505050949350505050565b519052565b6000610fe9611da0565b610ffb83600001518660a001516118c9565b805190915061100957600080fd5b60c0840151611019908290611629565b611021611da0565b61102b600161069e565b9050611035611da0565b6110428660e00151611661565b905061104c611da0565b611056600061069e565b905060005b8751518110156110be5761108f8960c00151828151811061107857fe5b602002602001015183610fda90919063ffffffff16565b6110ac6110a58960000151838151811061021157fe5b8390611629565b6110b68383611670565b60010161105b565b5087516110cc908490611629565b6110d4611da0565b6110e18860a00151611661565b905060005b6003811015611154576111038961010001518260038110610c7257fe5b60208a0151611113908490611629565b60408a0151611123908490611670565b6111428960800151826004811061113657fe5b60200201518490611670565b61114c8284611629565b6001016110e6565b506040890151611165908390610fda565b608088015160600151611179908390611670565b6111838183611629565b61118d8185611629565b611197838261186e565b88516111a4908590611629565b6111b88960c0015160008151811061107857fe5b6111c28285611629565b6111cc838361186e565b505051915190911495945050505050565b610eae828260000151610e1f565b80516a636f6e736f6c652e6c6f67602083016000808483855afa5050505050565b611214611d86565b6060820151611224906005610ad7565b905061122e611d86565b6112366115ae565b9050611240611da0565b61124a600061069e565b905060005b6004811015611294576112808660800151826004811061126b57fe5b602002015186606001518360068110610b2157fe5b925061128c8484611656565b60010161124f565b506080850151516112a6908290610fda565b6080850151602001516112ba908290611629565b60608401516112cc9082906004610b21565b91506112d88383611656565b6112e0611da0565b6112ed8760a00151611661565b905061130687602001518261162990919063ffffffff16565b60808601516060015161131a908290611670565b604087015161132a908290611670565b60005b60038110156113aa5760a0880151611346908490610fda565b6113658660a00151826003811061135957fe5b60200201518490611629565b6020880151611375908490611629565b6040880151611385908490611670565b6113988760800151826004811061113657fe5b6113a28284611629565b60010161132d565b5086516113b8908290611629565b6113cc8760c0015160008151811061107857fe5b86516113d9908390611629565b86516113e6908390611629565b6113f08183611670565b6113f8611da0565b611402600161069e565b905060005b6003811015611481576020890151611420908590610fda565b611440886101000151826003811061143457fe5b60200201518590611629565b6040890151611450908590611670565b61146f8860800151826004811061146357fe5b60200201518590611670565b6114798285611629565b600101611407565b506020880151611492908290611629565b60a08701516114a2908290611629565b87516114af908290611629565b60408701516114be9083611643565b60808701519094506114de906114d79083906003610b21565b859061168a565b6114e88585611656565b60608801516114f89086906118f1565b6080880151604088015161150b91611643565b93506115178585611656565b505050509392505050565b61152a611da0565b611532611e54565b6040518060c001604052806020815260200160208152602001602081526020018560000151815260200184815260200160008051602061230a833981519152815250905061157e611e72565b600060208260c08560055afa90508061159657600080fd5b50604080516020810190915290518152949350505050565b6115b6611d86565b50604080518082019091527f1d9339ecb0d2fc1b05624dc1de6c00e10cf876d7af13c305e3a590a7ef9bd66981527f0e5ce41bb75a50c99c3de0a8c6515fc03c62b9c039998bc8ce6e5fe7cbc1a51d602082015290565b611615611d86565b815181526020918201519181019190915290565b60008051602061230a833981519152815183510990915250565b61164b611d86565b6105b68383836118f8565b610eae82828461193a565b611669611da0565b9051815290565b60008051602061230a833981519152815183510890915250565b610eae8282846119d2565b60208101516116af578051156116aa57600080fd5b610a69565b60200180516000805160206122ea833981519152039052565b6116d0611db3565b50604080516080810182527f174a03aab54c41bae71467c22c7a99d6996227faaf5a7689c0cd9b0e5720801f8183019081527f1f1f5cbafa98c45bbff17b0f8f33955ac2d42956a07f3b9e4f89159c2667d6aa6060830152815281518083019092527f17cc7d28b62d5cdc8978fd1e2f241bef1d65518787a16c38bfe090a11e45b1f282527f16de65692e235f512df48b4e61d1a38cce551fa78518cb1af947fac1f801c1ae60208381019190915281019190915290565b60408051600280825260608281019093526000929190816020015b6117ab611d86565b8152602001906001900390816117a357505060408051600280825260608083019093529293509091602082015b6117e0611db3565b8152602001906001900390816117d8579050509050868260008151811061180357fe5b6020026020010181905250848260018151811061181c57fe5b6020026020010181905250858160008151811061183557fe5b6020026020010181905250838160018151811061184e57fe5b60200260200101819052506118638282611a6c565b979650505050505050565b8051825160008051602061230a833981519152918203900890915250565b611894611da0565b815161189f57600080fd5b6105b6827f30644e72e131a029b85045b68181585d2833e84879b9709143e1f593efffffff611522565b6118d1611da0565b6118db8284611522565b90506105b66118ea600161069e565b829061186e565b610eae8282845b611900611e90565b835181526020840151816001602002015282518160026020020152600060408360608460075afa90508061193357600080fd5b5050505050565b815115801561194b57506020820151155b156119635782518152602080840151908201526119cd565b825115801561197457506020830151155b1561198c5781518152602080830151908201526119cd565b611994611eae565b8351815260208085015181830152835160408301528301518160035b6020020152600060408360808460065afa90508061193357600080fd5b505050565b81511580156119e357506020820151155b156119fb5782518152602080840151908201526119cd565b8251158015611a0c57506020830151155b15611a3457815181526020808301516000805160206122ea83398151915203908201526119cd565b611a3c611eae565b8351815260208085015181830152835160408301528301516000805160206122ea833981519152038160036119b0565b60008151835114611a7c57600080fd5b82516006810260608167ffffffffffffffff81118015611a9b57600080fd5b50604051908082528060200260200182016040528015611ac5578160200160208202803683370190505b50905060005b83811015611c4a57868181518110611adf57fe5b602002602001015160000151828260060260000181518110611afd57fe5b602002602001018181525050868181518110611b1557fe5b602002602001015160200151828260060260010181518110611b3357fe5b602002602001018181525050858181518110611b4b57fe5b602090810291909101015151518251839060026006850201908110611b6c57fe5b602002602001018181525050858181518110611b8457fe5b60209081029190910101515160016020020151828260060260030181518110611ba957fe5b602002602001018181525050858181518110611bc157fe5b602002602001015160200151600060028110611bd957fe5b6020020151828260060260040181518110611bf057fe5b602002602001018181525050858181518110611c0857fe5b602002602001015160200151600160028110611c2057fe5b6020020151828260060260050181518110611c3757fe5b6020908102919091010152600101611acb565b50611c53611e72565b6000602082602086026020860160085afa905080611c7057600080fd5b505115159695505050505050565b60405180610160016040528060608152602001611c99611ecc565b8152602001611ca6611d86565b8152602001611cb3611ecc565b8152602001611cc0611ef9565b8152602001611ccd611da0565b8152602001611cda611da0565b8152602001611ce7611da0565b8152602001611cf4611f26565b8152602001611d01611d86565b8152602001611d0e611d86565b905290565b6040518060e001604052806000815260200160008152602001611d34611da0565b8152602001611d41611f53565b8152602001611d4e611ecc565b8152602001611d5b611f26565b8152602001611d0e611db3565b60405180604001604052806002906020820280368337509192915050565b604051806040016040528060008152602001600081525090565b6040518060200160405280600081525090565b6040518060400160405280611dc6611d68565b8152602001611d0e611d68565b6040518060e00160405280611de6611da0565b8152602001611df3611da0565b8152602001611e00611da0565b8152602001611e0d611da0565b8152602001611e1a611da0565b8152602001611e27611da0565b8152602001606081525090565b604080516060810182526000808252602082018190529181019190915290565b6040518060c001604052806006906020820280368337509192915050565b60405180602001604052806001906020820280368337509192915050565b60405180606001604052806003906020820280368337509192915050565b60405180608001604052806004906020820280368337509192915050565b60405180608001604052806004905b611ee3611d86565b815260200190600190039081611edb5790505090565b60405180608001604052806004905b611f10611da0565b815260200190600190039081611f085790505090565b60405180606001604052806003905b611f3d611da0565b815260200190600190039081611f355790505090565b6040518060c001604052806006905b611f6a611d86565b815260200190600190039081611f625790505090565b600082601f830112611f90578081fd5b813567ffffffffffffffff80821115611fa7578283fd5b602080830260405182828201018181108582111715611fc4578687fd5b604052848152945081850192508582018187018301881015611fe557600080fd5b600091505b84821015612008578035845292820192600191909101908201611fea565b505050505092915050565b60008060408385031215612025578182fd5b823567ffffffffffffffff8082111561203c578384fd5b61204886838701611f80565b9350602085013591508082111561205d578283fd5b5061206a85828601611f80565b9150509250929050565b8060005b600381101561209857815151845260209384019390910190600101612078565b50505050565b8060005b6004811015612098578151518452602093840193909101906001016120a2565b8060005b6004811015612098576120da84835161212a565b60409390930192602091909101906001016120c6565b6000815180845260208085019450808401835b8381101561211f57815187529582019590820190600101612103565b509495945050505050565b80518252602090810151910152565b60e09490941b6001600160e01b031916845260048401929092526024830152604482015260640190565b6001600160e01b031960e095861b811682526004820194909452602481019290925290921b16604482015260480190565b901515815260200190565b6000602080835283518082850152825b818110156121cb578581018301518582016040015282016121af565b818111156121dc5783604083870101525b50601f01601f1916929092016040019392505050565b600060208252825161042060208401526122106104408401826120f0565b9050602084015161222460408501826120c2565b5060408401516101406122398186018361212a565b6060860151915061224e6101808601836120c2565b6080860151915061226361028086018361209e565b60a08601519150612278610300860183610fda565b60c0860151915061228d610320860183610fda565b60e086015191506122a2610340860183610fda565b61010086015191506122b8610360860183612074565b61012086015191506122ce6103c086018361212a565b85015190506122e161040085018261212a565b50939250505056fe30644e72e131a029b85045b68181585d97816a916871ca8d3c208c16d87cfd4730644e72e131a029b85045b68181585d2833e84879b9709143e1f593f0000001a264697066735822122010fc67389228fafec5ff61450201ca88b442d0e9d355cdaa83d8779d414befb864736f6c634300060c0033",
  "linkReferences": {},
  "deployedLinkReferences": {}
}